{
  "_format": "hh-sol-artifact-1",
  "contractName": "VaultToken",
  "sourceName": "contracts/VaultToken.sol",
  "abi": [
    {
      "inputs": [
        {
          "internalType": "address",
          "name": "_initialOwner",
          "type": "address"
        },
        {
          "internalType": "uint256",
          "name": "_initialSupply",
          "type": "uint256"
        }
      ],
      "stateMutability": "nonpayable",
      "type": "constructor"
    },
    {
      "anonymous": false,
      "inputs": [
        {
          "indexed": true,
          "internalType": "address",
          "name": "owner",
          "type": "address"
        },
        {
          "indexed": true,
          "internalType": "address",
          "name": "spender",
          "type": "address"
        },
        {
          "indexed": false,
          "internalType": "uint256",
          "name": "value",
          "type": "uint256"
        }
      ],
      "name": "Approval",
      "type": "event"
    },
    {
      "anonymous": false,
      "inputs": [
        {
          "indexed": true,
          "internalType": "address",
          "name": "minter",
          "type": "address"
        },
        {
          "indexed": false,
          "internalType": "bool",
          "name": "authorized",
          "type": "bool"
        }
      ],
      "name": "MinterAuthorized",
      "type": "event"
    },
    {
      "anonymous": false,
      "inputs": [
        {
          "indexed": true,
          "internalType": "address",
          "name": "previousOwner",
          "type": "address"
        },
        {
          "indexed": true,
          "internalType": "address",
          "name": "newOwner",
          "type": "address"
        }
      ],
      "name": "OwnershipTransferred",
      "type": "event"
    },
    {
      "anonymous": false,
      "inputs": [
        {
          "indexed": false,
          "internalType": "address",
          "name": "account",
          "type": "address"
        }
      ],
      "name": "Paused",
      "type": "event"
    },
    {
      "anonymous": false,
      "inputs": [
        {
          "indexed": true,
          "internalType": "address",
          "name": "recipient",
          "type": "address"
        },
        {
          "indexed": false,
          "internalType": "uint256",
          "name": "amount",
          "type": "uint256"
        },
        {
          "indexed": false,
          "internalType": "string",
          "name": "reason",
          "type": "string"
        }
      ],
      "name": "RewardMinted",
      "type": "event"
    },
    {
      "anonymous": false,
      "inputs": [
        {
          "indexed": false,
          "internalType": "string",
          "name": "rewardType",
          "type": "string"
        },
        {
          "indexed": false,
          "internalType": "uint256",
          "name": "newRate",
          "type": "uint256"
        }
      ],
      "name": "RewardRateUpdated",
      "type": "event"
    },
    {
      "anonymous": false,
      "inputs": [
        {
          "indexed": true,
          "internalType": "address",
          "name": "from",
          "type": "address"
        },
        {
          "indexed": true,
          "internalType": "address",
          "name": "to",
          "type": "address"
        },
        {
          "indexed": false,
          "internalType": "uint256",
          "name": "value",
          "type": "uint256"
        }
      ],
      "name": "Transfer",
      "type": "event"
    },
    {
      "anonymous": false,
      "inputs": [
        {
          "indexed": false,
          "internalType": "address",
          "name": "account",
          "type": "address"
        }
      ],
      "name": "Unpaused",
      "type": "event"
    },
    {
      "inputs": [],
      "name": "LIQUIDITY_REWARD_RATE",
      "outputs": [
        {
          "internalType": "uint256",
          "name": "",
          "type": "uint256"
        }
      ],
      "stateMutability": "view",
      "type": "function"
    },
    {
      "inputs": [],
      "name": "MAX_SUPPLY",
      "outputs": [
        {
          "internalType": "uint256",
          "name": "",
          "type": "uint256"
        }
      ],
      "stateMutability": "view",
      "type": "function"
    },
    {
      "inputs": [],
      "name": "TOKENIZATION_REWARD_RATE",
      "outputs": [
        {
          "internalType": "uint256",
          "name": "",
          "type": "uint256"
        }
      ],
      "stateMutability": "view",
      "type": "function"
    },
    {
      "inputs": [],
      "name": "TRADING_REWARD_RATE",
      "outputs": [
        {
          "internalType": "uint256",
          "name": "",
          "type": "uint256"
        }
      ],
      "stateMutability": "view",
      "type": "function"
    },
    {
      "inputs": [
        {
          "internalType": "address",
          "name": "owner",
          "type": "address"
        },
        {
          "internalType": "address",
          "name": "spender",
          "type": "address"
        }
      ],
      "name": "allowance",
      "outputs": [
        {
          "internalType": "uint256",
          "name": "",
          "type": "uint256"
        }
      ],
      "stateMutability": "view",
      "type": "function"
    },
    {
      "inputs": [
        {
          "internalType": "address",
          "name": "spender",
          "type": "address"
        },
        {
          "internalType": "uint256",
          "name": "amount",
          "type": "uint256"
        }
      ],
      "name": "approve",
      "outputs": [
        {
          "internalType": "bool",
          "name": "",
          "type": "bool"
        }
      ],
      "stateMutability": "nonpayable",
      "type": "function"
    },
    {
      "inputs": [
        {
          "internalType": "address",
          "name": "",
          "type": "address"
        }
      ],
      "name": "authorizedMinters",
      "outputs": [
        {
          "internalType": "bool",
          "name": "",
          "type": "bool"
        }
      ],
      "stateMutability": "view",
      "type": "function"
    },
    {
      "inputs": [
        {
          "internalType": "address",
          "name": "account",
          "type": "address"
        }
      ],
      "name": "balanceOf",
      "outputs": [
        {
          "internalType": "uint256",
          "name": "",
          "type": "uint256"
        }
      ],
      "stateMutability": "view",
      "type": "function"
    },
    {
      "inputs": [
        {
          "internalType": "address[]",
          "name": "_recipients",
          "type": "address[]"
        },
        {
          "internalType": "uint256[]",
          "name": "_amounts",
          "type": "uint256[]"
        },
        {
          "internalType": "string",
          "name": "_reason",
          "type": "string"
        }
      ],
      "name": "batchMintRewards",
      "outputs": [],
      "stateMutability": "nonpayable",
      "type": "function"
    },
    {
      "inputs": [
        {
          "internalType": "uint256",
          "name": "amount",
          "type": "uint256"
        }
      ],
      "name": "burn",
      "outputs": [],
      "stateMutability": "nonpayable",
      "type": "function"
    },
    {
      "inputs": [
        {
          "internalType": "address",
          "name": "account",
          "type": "address"
        },
        {
          "internalType": "uint256",
          "name": "amount",
          "type": "uint256"
        }
      ],
      "name": "burnFrom",
      "outputs": [],
      "stateMutability": "nonpayable",
      "type": "function"
    },
    {
      "inputs": [
        {
          "internalType": "uint256",
          "name": "_assetValue",
          "type": "uint256"
        }
      ],
      "name": "calculateTokenizationReward",
      "outputs": [
        {
          "internalType": "uint256",
          "name": "",
          "type": "uint256"
        }
      ],
      "stateMutability": "pure",
      "type": "function"
    },
    {
      "inputs": [
        {
          "internalType": "uint256",
          "name": "_tradeValue",
          "type": "uint256"
        }
      ],
      "name": "calculateTradingReward",
      "outputs": [
        {
          "internalType": "uint256",
          "name": "",
          "type": "uint256"
        }
      ],
      "stateMutability": "pure",
      "type": "function"
    },
    {
      "inputs": [],
      "name": "decimals",
      "outputs": [
        {
          "internalType": "uint8",
          "name": "",
          "type": "uint8"
        }
      ],
      "stateMutability": "view",
      "type": "function"
    },
    {
      "inputs": [
        {
          "internalType": "address",
          "name": "spender",
          "type": "address"
        },
        {
          "internalType": "uint256",
          "name": "subtractedValue",
          "type": "uint256"
        }
      ],
      "name": "decreaseAllowance",
      "outputs": [
        {
          "internalType": "bool",
          "name": "",
          "type": "bool"
        }
      ],
      "stateMutability": "nonpayable",
      "type": "function"
    },
    {
      "inputs": [],
      "name": "getContractInfo",
      "outputs": [
        {
          "internalType": "uint256",
          "name": "currentSupply",
          "type": "uint256"
        },
        {
          "internalType": "uint256",
          "name": "maxSupply",
          "type": "uint256"
        },
        {
          "internalType": "uint256",
          "name": "remainingSupply",
          "type": "uint256"
        },
        {
          "internalType": "bool",
          "name": "isPaused",
          "type": "bool"
        }
      ],
      "stateMutability": "view",
      "type": "function"
    },
    {
      "inputs": [
        {
          "internalType": "address",
          "name": "_user",
          "type": "address"
        }
      ],
      "name": "getUserStats",
      "outputs": [
        {
          "internalType": "uint256",
          "name": "balance",
          "type": "uint256"
        },
        {
          "internalType": "uint256",
          "name": "totalRewards",
          "type": "uint256"
        },
        {
          "internalType": "uint256",
          "name": "lastActivity",
          "type": "uint256"
        },
        {
          "internalType": "bool",
          "name": "isActive",
          "type": "bool"
        }
      ],
      "stateMutability": "view",
      "type": "function"
    },
    {
      "inputs": [
        {
          "internalType": "address",
          "name": "spender",
          "type": "address"
        },
        {
          "internalType": "uint256",
          "name": "addedValue",
          "type": "uint256"
        }
      ],
      "name": "increaseAllowance",
      "outputs": [
        {
          "internalType": "bool",
          "name": "",
          "type": "bool"
        }
      ],
      "stateMutability": "nonpayable",
      "type": "function"
    },
    {
      "inputs": [
        {
          "internalType": "address",
          "name": "",
          "type": "address"
        }
      ],
      "name": "lastActivityBlock",
      "outputs": [
        {
          "internalType": "uint256",
          "name": "",
          "type": "uint256"
        }
      ],
      "stateMutability": "view",
      "type": "function"
    },
    {
      "inputs": [
        {
          "internalType": "address",
          "name": "_recipient",
          "type": "address"
        },
        {
          "internalType": "uint256",
          "name": "_amount",
          "type": "uint256"
        },
        {
          "internalType": "string",
          "name": "_reason",
          "type": "string"
        }
      ],
      "name": "mintReward",
      "outputs": [],
      "stateMutability": "nonpayable",
      "type": "function"
    },
    {
      "inputs": [],
      "name": "name",
      "outputs": [
        {
          "internalType": "string",
          "name": "",
          "type": "string"
        }
      ],
      "stateMutability": "view",
      "type": "function"
    },
    {
      "inputs": [],
      "name": "owner",
      "outputs": [
        {
          "internalType": "address",
          "name": "",
          "type": "address"
        }
      ],
      "stateMutability": "view",
      "type": "function"
    },
    {
      "inputs": [],
      "name": "pause",
      "outputs": [],
      "stateMutability": "nonpayable",
      "type": "function"
    },
    {
      "inputs": [],
      "name": "paused",
      "outputs": [
        {
          "internalType": "bool",
          "name": "",
          "type": "bool"
        }
      ],
      "stateMutability": "view",
      "type": "function"
    },
    {
      "inputs": [],
      "name": "renounceOwnership",
      "outputs": [],
      "stateMutability": "nonpayable",
      "type": "function"
    },
    {
      "inputs": [
        {
          "internalType": "address",
          "name": "_minter",
          "type": "address"
        },
        {
          "internalType": "bool",
          "name": "_authorized",
          "type": "bool"
        }
      ],
      "name": "setMinterAuthorization",
      "outputs": [],
      "stateMutability": "nonpayable",
      "type": "function"
    },
    {
      "inputs": [],
      "name": "symbol",
      "outputs": [
        {
          "internalType": "string",
          "name": "",
          "type": "string"
        }
      ],
      "stateMutability": "view",
      "type": "function"
    },
    {
      "inputs": [
        {
          "internalType": "address",
          "name": "",
          "type": "address"
        }
      ],
      "name": "totalRewardsEarned",
      "outputs": [
        {
          "internalType": "uint256",
          "name": "",
          "type": "uint256"
        }
      ],
      "stateMutability": "view",
      "type": "function"
    },
    {
      "inputs": [],
      "name": "totalSupply",
      "outputs": [
        {
          "internalType": "uint256",
          "name": "",
          "type": "uint256"
        }
      ],
      "stateMutability": "view",
      "type": "function"
    },
    {
      "inputs": [
        {
          "internalType": "address",
          "name": "to",
          "type": "address"
        },
        {
          "internalType": "uint256",
          "name": "amount",
          "type": "uint256"
        }
      ],
      "name": "transfer",
      "outputs": [
        {
          "internalType": "bool",
          "name": "",
          "type": "bool"
        }
      ],
      "stateMutability": "nonpayable",
      "type": "function"
    },
    {
      "inputs": [
        {
          "internalType": "address",
          "name": "from",
          "type": "address"
        },
        {
          "internalType": "address",
          "name": "to",
          "type": "address"
        },
        {
          "internalType": "uint256",
          "name": "amount",
          "type": "uint256"
        }
      ],
      "name": "transferFrom",
      "outputs": [
        {
          "internalType": "bool",
          "name": "",
          "type": "bool"
        }
      ],
      "stateMutability": "nonpayable",
      "type": "function"
    },
    {
      "inputs": [
        {
          "internalType": "address",
          "name": "newOwner",
          "type": "address"
        }
      ],
      "name": "transferOwnership",
      "outputs": [],
      "stateMutability": "nonpayable",
      "type": "function"
    },
    {
      "inputs": [],
      "name": "unpause",
      "outputs": [],
      "stateMutability": "nonpayable",
      "type": "function"
    }
  ],
  "bytecode": "0x60806040523480156200001157600080fd5b5060405162001e0638038062001e068339810160408190526200003491620002e7565b6040518060400160405280600a8152602001692b30bab63a2a37b5b2b760b11b81525060405180604001604052806005815260200164159055531560da1b8152508160039081620000869190620003c7565b506004620000958282620003c7565b505050620000b2620000ac6200014660201b60201c565b6200014a565b6005805460ff60a01b191690556a52b7d2dcc80cd2e4000000811115620001205760405162461bcd60e51b815260206004820152601e60248201527f496e697469616c20737570706c792065786365656473206d6178696d756d000060448201526064015b60405180910390fd5b6200012b826200014a565b80156200013e576200013e82826200019c565b5050620004bb565b3390565b600580546001600160a01b038381166001600160a01b0319831681179093556040519116919082907f8be0079c531659141344cd1fd0a4f28419497f9722a3daafe3b4186f6b6457e090600090a35050565b6001600160a01b038216620001f45760405162461bcd60e51b815260206004820152601f60248201527f45524332303a206d696e7420746f20746865207a65726f206164647265737300604482015260640162000117565b62000202600083836200026d565b806002600082825462000216919062000493565b90915550506001600160a01b038216600081815260208181526040808320805486019055518481527fddf252ad1be2c89b69c2b068fc378daa952ba7f163c4a11628f55a4df523b3ef910160405180910390a35050565b620002776200028f565b6200028a8383836001600160e01b038416565b505050565b620002a3600554600160a01b900460ff1690565b15620002e55760405162461bcd60e51b815260206004820152601060248201526f14185d5cd8589b194e881c185d5cd95960821b604482015260640162000117565b565b60008060408385031215620002fb57600080fd5b82516001600160a01b03811681146200031357600080fd5b6020939093015192949293505050565b634e487b7160e01b600052604160045260246000fd5b600181811c908216806200034e57607f821691505b6020821081036200036f57634e487b7160e01b600052602260045260246000fd5b50919050565b601f8211156200028a57600081815260208120601f850160051c810160208610156200039e5750805b601f850160051c820191505b81811015620003bf57828155600101620003aa565b505050505050565b81516001600160401b03811115620003e357620003e362000323565b620003fb81620003f4845462000339565b8462000375565b602080601f8311600181146200043357600084156200041a5750858301515b600019600386901b1c1916600185901b178555620003bf565b600085815260208120601f198616915b82811015620004645788860151825594840194600190910190840162000443565b5085821015620004835787850151600019600388901b60f8161c191681555b5050505050600190811b01905550565b80820180821115620004b557634e487b7160e01b600052601160045260246000fd5b92915050565b61193b80620004cb6000396000f3fe608060405234801561001057600080fd5b50600436106101fb5760003560e01c80636e03e7221161011a5780638da5cb5b116100ad578063aa2fe91b1161007c578063aa2fe91b1461041f578063bd75a91714610442578063dd62ed3e14610455578063e4f24cb014610468578063f2fde38b1461048857600080fd5b80638da5cb5b146103d657806395d89b41146103f1578063a457c2d7146103f9578063a9059cbb1461040c57600080fd5b80637cc1f867116100e95780637cc1f867146103ab57806383655eb8146103b35780638456cb59146103bb578063891197a8146103c357600080fd5b80636e03e7221461035f57806370a0823114610367578063715018a61461039057806379cc67901461039857600080fd5b8063378c2b86116101925780634bc0f53a116101615780634bc0f53a146102f25780634e43603a1461030557806359663fa21461033a5780635c975abb1461034d57600080fd5b8063378c2b86146102af57806339509351146102c45780633f4ba83a146102d757806342966c68146102df57600080fd5b806323b872dd116101ce57806323b872dd14610273578063240cf4b714610286578063313ce5671461028e57806332cb6b0c1461029d57600080fd5b806306fdde0314610200578063095ea7b31461021e57806318160ddd146102415780631cedfed414610253575b600080fd5b61020861049b565b60405161021591906114f5565b60405180910390f35b61023161022c36600461155f565b61052d565b6040519015158152602001610215565b6002545b604051908152602001610215565b610245610261366004611589565b60086020526000908152604090205481565b6102316102813660046115ab565b610547565b610245606481565b60405160128152602001610215565b6102456a52b7d2dcc80cd2e400000081565b6102c26102bd3660046115e7565b61056b565b005b6102316102d236600461155f565b6105d2565b6102c26105f4565b6102c26102ed366004611623565b610606565b6102c26103003660046116ca565b610613565b610318610313366004611589565b61097b565b6040805194855260208501939093529183015215156060820152608001610215565b610245610348366004611623565b6109e3565b600554600160a01b900460ff16610231565b61024560c881565b610245610375366004611589565b6001600160a01b031660009081526020819052604090205490565b6102c26109fd565b6102c26103a636600461155f565b610a0f565b610318610a28565b610245603281565b6102c2610a69565b6102c26103d1366004611764565b610a79565b6005546040516001600160a01b039091168152602001610215565b610208610c6f565b61023161040736600461155f565b610c7e565b61023161041a36600461155f565b610cf9565b61023161042d366004611589565b60066020526000908152604090205460ff1681565b610245610450366004611623565b610d07565b6102456104633660046117be565b610d17565b610245610476366004611589565b60076020526000908152604090205481565b6102c2610496366004611589565b610d42565b6060600380546104aa906117f1565b80601f01602080910402602001604051908101604052809291908181526020018280546104d6906117f1565b80156105235780601f106104f857610100808354040283529160200191610523565b820191906000526020600020905b81548152906001019060200180831161050657829003601f168201915b5050505050905090565b60003361053b818585610db8565b60019150505b92915050565b600033610555858285610edd565b610560858585610f57565b506001949350505050565b610573611106565b6001600160a01b038216600081815260066020908152604091829020805460ff191685151590811790915591519182527f9041c22ed79d1c19c69cc22fd9e38c93da4f2dd8cd32580594e232a8a18541cb910160405180910390a25050565b60003361053b8185856105e58383610d17565b6105ef9190611841565b610db8565b6105fc611106565b610604611160565b565b61061033826111b5565b50565b61061b6112eb565b3360009081526006602052604090205460ff166106785760405162461bcd60e51b8152602060048201526016602482015275139bdd08185d5d1a1bdc9a5e9959081d1bc81b5a5b9d60521b60448201526064015b60405180910390fd5b8483146106bf5760405162461bcd60e51b8152602060048201526015602482015274082e4e4c2f240d8cadccee8d040dad2e6dac2e8c6d605b1b604482015260640161066f565b6000805b84811015610703578585828181106106dd576106dd611854565b90506020020135826106ef9190611841565b9150806106fb8161186a565b9150506106c3565b506a52b7d2dcc80cd2e40000008161071a60025490565b6107249190611841565b111561076c5760405162461bcd60e51b8152602060048201526017602482015276576f756c6420657863656564206d617820737570706c7960481b604482015260640161066f565b60005b8681101561097157600088888381811061078b5761078b611854565b90506020020160208101906107a09190611589565b6001600160a01b0316141580156107cf575060008686838181106107c6576107c6611854565b90506020020135115b1561095f5761081c8888838181106107e9576107e9611854565b90506020020160208101906107fe9190611589565b87878481811061081057610810611854565b90506020020135611338565b85858281811061082e5761082e611854565b90506020020135600760008a8a8581811061084b5761084b611854565b90506020020160208101906108609190611589565b6001600160a01b03166001600160a01b03168152602001908152602001600020600082825461088f9190611841565b90915550439050600860008a8a858181106108ac576108ac611854565b90506020020160208101906108c19190611589565b6001600160a01b031681526020810191909152604001600020558787828181106108ed576108ed611854565b90506020020160208101906109029190611589565b6001600160a01b03167f765f02a4009bbabeb5bcacb42308293ab54fa68b299d9cf67bc945e839be966087878481811061093e5761093e611854565b90506020020135868660405161095693929190611883565b60405180910390a25b806109698161186a565b91505061076f565b5050505050505050565b6000806000806109a0856001600160a01b031660009081526020819052604090205490565b6001600160a01b0386166000908152600760209081526040808320546008909252909120549195509350915061c3506109d983436118b9565b1090509193509193565b60006127106109f36064846118cc565b61054191906118e3565b610a05611106565b6106046000611403565b610a1a823383610edd565b610a2482826111b5565b5050565b600080600080610a3760025490565b93506a52b7d2dcc80cd2e40000009250610a5184846118b9565b600554909250600160a01b900460ff16905090919293565b610a71611106565b610604611455565b610a816112eb565b3360009081526006602052604090205460ff16610ad95760405162461bcd60e51b8152602060048201526016602482015275139bdd08185d5d1a1bdc9a5e9959081d1bc81b5a5b9d60521b604482015260640161066f565b6001600160a01b038416610b235760405162461bcd60e51b8152602060048201526011602482015270125b9d985b1a59081c9958da5c1a595b9d607a1b604482015260640161066f565b60008311610b735760405162461bcd60e51b815260206004820152601760248201527f416d6f756e74206d75737420626520706f736974697665000000000000000000604482015260640161066f565b6a52b7d2dcc80cd2e400000083610b8960025490565b610b939190611841565b1115610bdb5760405162461bcd60e51b8152602060048201526017602482015276576f756c6420657863656564206d617820737570706c7960481b604482015260640161066f565b610be58484611338565b6001600160a01b03841660009081526007602052604081208054859290610c0d908490611841565b90915550506001600160a01b03841660008181526008602052604090819020439055517f765f02a4009bbabeb5bcacb42308293ab54fa68b299d9cf67bc945e839be966090610c6190869086908690611883565b60405180910390a250505050565b6060600480546104aa906117f1565b60003381610c8c8286610d17565b905083811015610cec5760405162461bcd60e51b815260206004820152602560248201527f45524332303a2064656372656173656420616c6c6f77616e63652062656c6f77604482015264207a65726f60d81b606482015260840161066f565b6105608286868403610db8565b60003361053b818585610f57565b60006127106109f36032846118cc565b6001600160a01b03918216600090815260016020908152604080832093909416825291909152205490565b610d4a611106565b6001600160a01b038116610daf5760405162461bcd60e51b815260206004820152602660248201527f4f776e61626c653a206e6577206f776e657220697320746865207a65726f206160448201526564647265737360d01b606482015260840161066f565b61061081611403565b6001600160a01b038316610e1a5760405162461bcd60e51b8152602060048201526024808201527f45524332303a20617070726f76652066726f6d20746865207a65726f206164646044820152637265737360e01b606482015260840161066f565b6001600160a01b038216610e7b5760405162461bcd60e51b815260206004820152602260248201527f45524332303a20617070726f766520746f20746865207a65726f206164647265604482015261737360f01b606482015260840161066f565b6001600160a01b0383811660008181526001602090815260408083209487168084529482529182902085905590518481527f8c5be1e5ebec7d5bd14f71427d1e84f3dd0314c0f7b2291e5b200ac8c7c3b92591015b60405180910390a3505050565b6000610ee98484610d17565b90506000198114610f515781811015610f445760405162461bcd60e51b815260206004820152601d60248201527f45524332303a20696e73756666696369656e7420616c6c6f77616e6365000000604482015260640161066f565b610f518484848403610db8565b50505050565b6001600160a01b038316610fbb5760405162461bcd60e51b815260206004820152602560248201527f45524332303a207472616e736665722066726f6d20746865207a65726f206164604482015264647265737360d81b606482015260840161066f565b6001600160a01b03821661101d5760405162461bcd60e51b815260206004820152602360248201527f45524332303a207472616e7366657220746f20746865207a65726f206164647260448201526265737360e81b606482015260840161066f565b611028838383611498565b6001600160a01b038316600090815260208190526040902054818110156110a05760405162461bcd60e51b815260206004820152602660248201527f45524332303a207472616e7366657220616d6f756e7420657863656564732062604482015265616c616e636560d01b606482015260840161066f565b6001600160a01b03848116600081815260208181526040808320878703905593871680835291849020805487019055925185815290927fddf252ad1be2c89b69c2b068fc378daa952ba7f163c4a11628f55a4df523b3ef910160405180910390a3610f51565b6005546001600160a01b031633146106045760405162461bcd60e51b815260206004820181905260248201527f4f776e61626c653a2063616c6c6572206973206e6f7420746865206f776e6572604482015260640161066f565b6111686114a5565b6005805460ff60a01b191690557f5db9ee0a495bf2e6ff9c91a7834c1ba4fdd244a5e8aa4e537bd38aeae4b073aa335b6040516001600160a01b03909116815260200160405180910390a1565b6001600160a01b0382166112155760405162461bcd60e51b815260206004820152602160248201527f45524332303a206275726e2066726f6d20746865207a65726f206164647265736044820152607360f81b606482015260840161066f565b61122182600083611498565b6001600160a01b038216600090815260208190526040902054818110156112955760405162461bcd60e51b815260206004820152602260248201527f45524332303a206275726e20616d6f756e7420657863656564732062616c616e604482015261636560f01b606482015260840161066f565b6001600160a01b0383166000818152602081815260408083208686039055600280548790039055518581529192917fddf252ad1be2c89b69c2b068fc378daa952ba7f163c4a11628f55a4df523b3ef9101610ed0565b600554600160a01b900460ff16156106045760405162461bcd60e51b815260206004820152601060248201526f14185d5cd8589b194e881c185d5cd95960821b604482015260640161066f565b6001600160a01b03821661138e5760405162461bcd60e51b815260206004820152601f60248201527f45524332303a206d696e7420746f20746865207a65726f206164647265737300604482015260640161066f565b61139a60008383611498565b80600260008282546113ac9190611841565b90915550506001600160a01b038216600081815260208181526040808320805486019055518481527fddf252ad1be2c89b69c2b068fc378daa952ba7f163c4a11628f55a4df523b3ef910160405180910390a35050565b600580546001600160a01b038381166001600160a01b0319831681179093556040519116919082907f8be0079c531659141344cd1fd0a4f28419497f9722a3daafe3b4186f6b6457e090600090a35050565b61145d6112eb565b6005805460ff60a01b1916600160a01b1790557f62e78cea01bee320cd4e420270b5ea74000d11b0c9f74754ebdbfc544b05a2586111983390565b6114a06112eb565b505050565b600554600160a01b900460ff166106045760405162461bcd60e51b815260206004820152601460248201527314185d5cd8589b194e881b9bdd081c185d5cd95960621b604482015260640161066f565b600060208083528351808285015260005b8181101561152257858101830151858201604001528201611506565b506000604082860101526040601f19601f8301168501019250505092915050565b80356001600160a01b038116811461155a57600080fd5b919050565b6000806040838503121561157257600080fd5b61157b83611543565b946020939093013593505050565b60006020828403121561159b57600080fd5b6115a482611543565b9392505050565b6000806000606084860312156115c057600080fd5b6115c984611543565b92506115d760208501611543565b9150604084013590509250925092565b600080604083850312156115fa57600080fd5b61160383611543565b91506020830135801515811461161857600080fd5b809150509250929050565b60006020828403121561163557600080fd5b5035919050565b60008083601f84011261164e57600080fd5b50813567ffffffffffffffff81111561166657600080fd5b6020830191508360208260051b850101111561168157600080fd5b9250929050565b60008083601f84011261169a57600080fd5b50813567ffffffffffffffff8111156116b257600080fd5b60208301915083602082850101111561168157600080fd5b600080600080600080606087890312156116e357600080fd5b863567ffffffffffffffff808211156116fb57600080fd5b6117078a838b0161163c565b9098509650602089013591508082111561172057600080fd5b61172c8a838b0161163c565b9096509450604089013591508082111561174557600080fd5b5061175289828a01611688565b979a9699509497509295939492505050565b6000806000806060858703121561177a57600080fd5b61178385611543565b935060208501359250604085013567ffffffffffffffff8111156117a657600080fd5b6117b287828801611688565b95989497509550505050565b600080604083850312156117d157600080fd5b6117da83611543565b91506117e860208401611543565b90509250929050565b600181811c9082168061180557607f821691505b60208210810361182557634e487b7160e01b600052602260045260246000fd5b50919050565b634e487b7160e01b600052601160045260246000fd5b808201808211156105415761054161182b565b634e487b7160e01b600052603260045260246000fd5b60006001820161187c5761187c61182b565b5060010190565b83815260406020820152816040820152818360608301376000818301606090810191909152601f909201601f1916010192915050565b818103818111156105415761054161182b565b80820281158282048414176105415761054161182b565b60008261190057634e487b7160e01b600052601260045260246000fd5b50049056fea2646970667358221220a489782f6cc751438eade3772c3949aabb1568ce10da60e13b8d905820e9a52264736f6c63430008130033",
  "linkReferences": {},
  "deployedLinkReferences": {}
}